{
  "_format": "hh-sol-artifact-1",
  "contractName": "AdsbData",
  "sourceName": "contracts/AdsbData.sol",
  "abi": [
    {
      "inputs": [],
      "stateMutability": "nonpayable",
      "type": "constructor"
    },
    {
      "anonymous": false,
      "inputs": [
        {
          "indexed": false,
          "internalType": "uint256",
          "name": "count",
          "type": "uint256"
        },
        {
          "indexed": false,
          "internalType": "uint256",
          "name": "timestamp",
          "type": "uint256"
        }
      ],
      "name": "FlightBatchUpdated",
      "type": "event"
    },
    {
      "anonymous": false,
      "inputs": [
        {
          "indexed": false,
          "internalType": "string",
          "name": "icao24",
          "type": "string"
        },
        {
          "indexed": false,
          "internalType": "string",
          "name": "reason",
          "type": "string"
        }
      ],
      "name": "FlightRejected",
      "type": "event"
    },
    {
      "anonymous": false,
      "inputs": [
        {
          "indexed": false,
          "internalType": "string",
          "name": "icao24",
          "type": "string"
        },
        {
          "indexed": false,
          "internalType": "string",
          "name": "callsign",
          "type": "string"
        },
        {
          "indexed": false,
          "internalType": "int256",
          "name": "latitude",
          "type": "int256"
        },
        {
          "indexed": false,
          "internalType": "int256",
          "name": "longitude",
          "type": "int256"
        },
        {
          "indexed": false,
          "internalType": "int256",
          "name": "altitude",
          "type": "int256"
        },
        {
          "indexed": false,
          "internalType": "bool",
          "name": "onGround",
          "type": "bool"
        },
        {
          "indexed": false,
          "internalType": "uint256",
          "name": "timestamp",
          "type": "uint256"
        },
        {
          "indexed": false,
          "internalType": "bool",
          "name": "isSpoofed",
          "type": "bool"
        }
      ],
      "name": "FlightUpdated",
      "type": "event"
    },
    {
      "inputs": [
        {
          "internalType": "uint256",
          "name": "index",
          "type": "uint256"
        }
      ],
      "name": "getFlight",
      "outputs": [
        {
          "internalType": "string",
          "name": "",
          "type": "string"
        },
        {
          "internalType": "string",
          "name": "",
          "type": "string"
        },
        {
          "internalType": "int256",
          "name": "",
          "type": "int256"
        },
        {
          "internalType": "int256",
          "name": "",
          "type": "int256"
        },
        {
          "internalType": "int256",
          "name": "",
          "type": "int256"
        },
        {
          "internalType": "bool",
          "name": "",
          "type": "bool"
        },
        {
          "internalType": "uint256",
          "name": "",
          "type": "uint256"
        },
        {
          "internalType": "bool",
          "name": "",
          "type": "bool"
        }
      ],
      "stateMutability": "view",
      "type": "function"
    },
    {
      "inputs": [],
      "name": "getFlightCount",
      "outputs": [
        {
          "internalType": "uint256",
          "name": "",
          "type": "uint256"
        }
      ],
      "stateMutability": "view",
      "type": "function"
    },
    {
      "inputs": [
        {
          "internalType": "uint256",
          "name": "count",
          "type": "uint256"
        }
      ],
      "name": "getLatestFlights",
      "outputs": [
        {
          "internalType": "string[]",
          "name": "icao24s",
          "type": "string[]"
        },
        {
          "internalType": "string[]",
          "name": "callsigns",
          "type": "string[]"
        },
        {
          "internalType": "int256[]",
          "name": "latitudes",
          "type": "int256[]"
        },
        {
          "internalType": "int256[]",
          "name": "longitudes",
          "type": "int256[]"
        },
        {
          "internalType": "int256[]",
          "name": "altitudes",
          "type": "int256[]"
        },
        {
          "internalType": "bool[]",
          "name": "onGrounds",
          "type": "bool[]"
        },
        {
          "internalType": "uint256[]",
          "name": "timestamps",
          "type": "uint256[]"
        },
        {
          "internalType": "bool[]",
          "name": "isSpoofedFlags",
          "type": "bool[]"
        }
      ],
      "stateMutability": "view",
      "type": "function"
    },
    {
      "inputs": [
        {
          "internalType": "string",
          "name": "_icao24",
          "type": "string"
        },
        {
          "internalType": "string",
          "name": "_callsign",
          "type": "string"
        },
        {
          "internalType": "int256",
          "name": "_latitude",
          "type": "int256"
        },
        {
          "internalType": "int256",
          "name": "_longitude",
          "type": "int256"
        },
        {
          "internalType": "int256",
          "name": "_altitude",
          "type": "int256"
        },
        {
          "internalType": "bool",
          "name": "_onGround",
          "type": "bool"
        },
        {
          "internalType": "bool",
          "name": "_isSpoofed",
          "type": "bool"
        }
      ],
      "name": "updateFlight",
      "outputs": [],
      "stateMutability": "nonpayable",
      "type": "function"
    },
    {
      "inputs": [
        {
          "internalType": "string[]",
          "name": "_icao24s",
          "type": "string[]"
        },
        {
          "internalType": "string[]",
          "name": "_callsigns",
          "type": "string[]"
        },
        {
          "internalType": "int256[]",
          "name": "_latitudes",
          "type": "int256[]"
        },
        {
          "internalType": "int256[]",
          "name": "_longitudes",
          "type": "int256[]"
        },
        {
          "internalType": "int256[]",
          "name": "_altitudes",
          "type": "int256[]"
        },
        {
          "internalType": "bool[]",
          "name": "_onGrounds",
          "type": "bool[]"
        },
        {
          "internalType": "bool[]",
          "name": "_isSpoofedFlags",
          "type": "bool[]"
        }
      ],
      "name": "updateFlightBatch",
      "outputs": [],
      "stateMutability": "nonpayable",
      "type": "function"
    },
    {
      "inputs": [
        {
          "internalType": "string",
          "name": "_icao24",
          "type": "string"
        },
        {
          "internalType": "int256",
          "name": "_latitude",
          "type": "int256"
        },
        {
          "internalType": "int256",
          "name": "_longitude",
          "type": "int256"
        },
        {
          "internalType": "int256",
          "name": "_altitude",
          "type": "int256"
        },
        {
          "internalType": "uint256",
          "name": "_timestamp",
          "type": "uint256"
        }
      ],
      "name": "validateFlightUpdate",
      "outputs": [
        {
          "internalType": "bool",
          "name": "valid",
          "type": "bool"
        },
        {
          "internalType": "string",
          "name": "reason",
          "type": "string"
        }
      ],
      "stateMutability": "view",
      "type": "function"
    }
  ],
  "bytecode": "0x60808060405234601557611cd2908161001b8239f35b600080fdfe6102a080604052600436101561001457600080fd5b60003560e01c9081631a4ab7ae14610a22575080633a4396cb1461089f578063515b3d281461088157806363b3b6a31461081a578063a954a66b146102e55763fc6e60ab1461006257600080fd5b346102e05760203660031901126102e057600154600435818111156102da5750805b61008d82611bbc565b9161009781611bbc565b6100a082611c06565b936100aa83611c06565b6100b384611c06565b956100bd85611c06565b926100c786611ba5565b946100d5604051968761131f565b8686526100e187611ba5565b602087019890601f1901368a376100f788611c06565b9760005b8181106101c4575050509761015f61017b946101516020979561014361016d966101369d9e6040519e8f9261010084526101008401906113a4565b918c8184039101526113a4565b8c810360408e0152906113fd565b908a820360608c01526113fd565b9088820360808a01526113fd565b9086820360a0880152611431565b9184830360c0860152519182815201939060005b8181106101ae5784806101aa888783820360e0850152611431565b0390f35b825186526020958601959092019160010161018f565b6101ce82846116be565b908082018092116102c45760ff60078e61020c60206101f76101f160019861177e565b506118bb565b60008260405194838680955193849201611268565b8201908152030190209061021f826118bb565b610229868c611c38565b52610234858b611c38565b506102408683016118bb565b61024a868b611c38565b52610255858a611c38565b506002820154610265868d611c38565b526003820154610275868e611c38565b5261028585600484015492611c38565b5260058101548316610297858e611c38565b901515905260068101546102ab858f611c38565b520154166102b9828d611c38565b9015159052016100fb565b634e487b7160e01b600052601160045260246000fd5b90610084565b600080fd5b346102e05760e03660031901126102e0576004356001600160401b0381116102e057610315903690600401611386565b6024356001600160401b0381116102e057610334903690600401611386565b60a4358015159260443592916084356064358683036102e05760c43596871515908189036102e057610368865115156114be565b63055d4a7f198812158061080c575b6103809061150f565b630aba94ff19831215806107fe575b6103989061154e565b60405191865192602081818a01956103b1818389611268565b810160008152030190206103c5815461158e565b6105bc575b50604051916103d883611303565b8783526020830190898252604084018b815260608501878152608086019189835260a0870193845260c087019442865260e08801968752888d6040518092819251809261042492611268565b810160008152036020019020975161043c90896117f8565b5161044a90600189016117f8565b5160028701555160038601555160048501555115156005840190610479919060ff801983541691151516179055565b516006830155511515906007019061049c919060ff801983541691151516179055565b6040518086516104ad818386611268565b8101600281520360200190205460ff1615610500575b50916104fb93917fe91765dfbddfb21ee1221dc71fda0743d7f0081f080e2eb1f5a8b83891a01a4997936040519788974295896112b0565b0390a1005b9692909391600154600160401b8110156105a657806001610524920160015561177e565b9590956105905761057060207fe91765dfbddfb21ee1221dc71fda0743d7f0081f080e2eb1f5a8b83891a01a499a61055f876104fb9a6117f8565b604051809381928951928391611268565b81016002815203019020600160ff198254161790559193975091936104c3565b634e487b7160e01b600052600060045260246000fd5b634e487b7160e01b600052604160045260246000fd5b6006810154804211156107a4576106276106208761061a6106158f61060a620f4240806106006105f461060f9560028e015490611624565b9760038d015490611624565b9605950594611c4c565b61166e565b92611c4c565b611688565b906116a2565b91426116be565b9182610635575b50506103ca565b600461064391015488611624565b61c35061064f82611c4c565b1361074a5761066883610663600a93611c4c565b61163d565b136106f057620186a01290816106e4575b50610686578a808061062e565b600080516020611c7d8339815191526106b0886106bd60405192839260408452604084019061128b565b8281036020840152611743565b0390a160405162461bcd60e51b815260206004820152806106e060248201611743565b0390fd5b61012c9150108b610679565b600080516020611c7d83398151915261071a8a61072760405192839260408452604084019061128b565b8281036020840152611707565b0390a160405162461bcd60e51b815260206004820152806106e060248201611707565b600080516020611c7d8339815191526107748b61078160405192839260408452604084019061128b565b82810360208401526116cb565b0390a160405162461bcd60e51b815260206004820152806106e0602482016116cb565b600080516020611c7d8339815191526107ce8a6107db60405192839260408452604084019061128b565b82810360208401526115e9565b0390a160405162461bcd60e51b815260206004820152806106e0602482016115e9565b50630aba950083131561038f565b5063055d4a80881315610377565b346102e05760a03660031901126102e0576004356001600160401b0381116102e05761084d610862913690600401611386565b6084359060643590604435906024359061195f565b906101aa6040519283921515835260406020840152604083019061128b565b346102e05760003660031901126102e0576020600154604051908152f35b346102e05760203660031901126102e0576004356001548110156109dd576108c69061177e565b50604051908160008254926108da8461158e565b93600181169081156109c35750600114610987575b506020925060008152030190206040519061090982611303565b610912816118bb565b82526101aa610923600183016118bb565b928360208201526002830154928360408301526003810154806060840152600482015480608085015260ff6005840154161515918260a086015260ff60076006860154958660c08901520154161515948560e08201525196604051988998896112b0565b9150506000528160206000206000905b8382106109ab5750506020918101846108ef565b60209192508060019154848701520191018391610997565b60ff191684525060209380151502830191508590506108ef565b60405162461bcd60e51b815260206004820152601a60248201527f466c6967687420696e646578206f7574206f6620626f756e64730000000000006044820152606490fd5b346102e05760e03660031901126102e0576004356001600160401b0381116102e057610a52903690600401611238565b61024052610180526024356001600160401b0381116102e057610a79903690600401611238565b61028052610260526044356001600160401b0381116102e057610aa0903690600401611238565b61014052610160526064356001600160401b0381116102e057610ac7903690600401611238565b6101a05260c0526084356001600160401b0381116102e057610aed903690600401611238565b6101e05260e05260a4356001600160401b0381116102e057610b13903690600401611238565b610200526101005260c4356001600160401b0381116102e057610b3a903690600401611238565b610220526101205261028051610240511480611229575b8061121a575b8061120b575b806111fc575b806111ed575b156111ab5760006101c0525b610240516101c05110610bb6577fe1801d1c0f546376b112a5226098f5b179496165669303c7a4f8698b4473662760408051610240518152426020820152a1005b610bd6610bcd6101c0516102405161018051611467565b905015156114be565b63055d4a7f19610bf06101c05161014051610160516114ff565b35121580611184575b610c029061150f565b630aba94ff19610c1b6101c0516101a05160c0516114ff565b3512158061115e575b610c2d9061154e565b6020610c436101c0516102405161018051611467565b919082604051938492833781016000815203019020610c62815461158e565b610f86575b5060ff6020610c806101c0516102405161018051611467565b919082604051938492833781016002815203019020541615610e39575b610e29610d596007610cb96101c0516102405161018051611467565b90610e0d610cd16101c0516102805161026051611467565b610ce86101c09492945161014051610160516114ff565b3593610d69610d006101c0516101a05160c0516114ff565b3591610d156101c0516101e05160e0516114ff565b3593610d60610d36610d316101c05161020051610100516114ff565b6117eb565b96610d4e610d316101c05161022051610120516114ff565b9a6040519d8e611303565b3691611340565b8b523691611340565b946020890195865260408901908152606089019182526080890192835260a089019315158452610de360c08a019642885260e08b019815158952610dd96020610dbc6101c0516102405161018051611467565b9190826040519384928337810160008152030190209b518c6117f8565b5160018b016117f8565b516002890155516003880155516004870155511515600586019060ff801983541691151516179055565b51600684015551151591019060ff801983541691151516179055565b60016101c051016101c052610b75565b610e4d6101c0516102405161018051611467565b600154600160401b8110156105a657806001610e6c920160015561177e565b919091610590576001600160401b0381116105a657610e9581610e8f845461158e565b84611799565b6000601f8211600114610f0f578190610ec69394600092610f04575b50508160011b916000199060031b1c19161790565b90555b6020610edf6101c0516102405161018051611467565b919082604051938492833781016002815203019020600160ff19825416179055610c9d565b013590508480610eb1565b8281526020812060a052806080525b601f19821660805110610f6357926001929382601f19811610610f48575b5050811b019055610ec9565b60001960f88460031b161c199101351660a051558380610f3c565b8060209185013560a05155600160a0510160a05201602060805101608052610f1e565b60068101548042111561112157610fef610620610fbc610fb06101c05161014051610160516114ff565b35600286015490611624565b61061a61061561060f61060a620f424080610600610fe36101c0516101a05160c0516114ff565b3560038d015490611624565b9182610ffd575b5050610c67565b6110209060046110166101c0516101e05160e0516114ff565b3591015490611624565b61c35061102c82611c4c565b136110e45761104083610663600a93611c4c565b136110a757620186a012908161109b575b5061105e57808080610ff6565b600080516020611c7d8339815191526110816101c0516102405161018051611467565b6106bd6106b06040519384936040855260408501916115c8565b61012c91501081611051565b600080516020611c7d8339815191526110ca6101c0516102405161018051611467565b61072761071a6040519384936040855260408501916115c8565b600080516020611c7d8339815191526111076101c0516102405161018051611467565b6107816107746040519384936040855260408501916115c8565b600080516020611c7d8339815191526111446101c0516102405161018051611467565b6107db6107ce6040519384936040855260408501916115c8565b50610c2d630aba950061117a6101c0516101a05160c0516114ff565b3513159050610c24565b50610c0263055d4a806111a16101c05161014051610160516114ff565b3513159050610bf9565b62461bcd60e51b815260206004820152601860248201527f4172726179206c656e67746873206d757374206d6174636800000000000000006044820152606490fd5b50610220516102405114610b69565b50610200516102405114610b63565b506101e0516102405114610b5d565b506101a0516102405114610b57565b50610140516102405114610b51565b9181601f840112156102e0578235916001600160401b0383116102e0576020808501948460051b0101116102e057565b60005b83811061127b5750506000910152565b818101518382015260200161126b565b906020916112a481518092818552858086019101611268565b601f01601f1916010190565b96939060e09693999895926112d26112e0926101008b526101008b019061128b565b9089820360208b015261128b565b98604088015260608701526080860152151560a085015260c08401521515910152565b61010081019081106001600160401b038211176105a657604052565b90601f801991011681019081106001600160401b038211176105a657604052565b9291926001600160401b0382116105a65760405191611369601f8201601f19166020018461131f565b8294818452818301116102e0578281602093846000960137010152565b9080601f830112156102e0578160206113a193359101611340565b90565b9080602083519182815201916020808360051b8301019401926000915b8383106113d057505050505090565b90919293946020806113ee600193601f19868203018752895161128b565b970193019301919392906113c1565b906020808351928381520192019060005b81811061141b5750505090565b825184526020938401939092019160010161140e565b906020808351928381520192019060005b81811061144f5750505090565b82511515845260209384019390920191600101611442565b91908110156114a85760051b81013590601e19813603018212156102e05701908135916001600160401b0383116102e05760200182360381136102e0579190565b634e487b7160e01b600052603260045260246000fd5b156114c557565b60405162461bcd60e51b81526020600482015260126024820152711250d053cc8d081a5cc81c995c5d5a5c995960721b6044820152606490fd5b91908110156114a85760051b0190565b1561151657565b60405162461bcd60e51b815260206004820152601060248201526f496e76616c6964206c6174697475646560801b6044820152606490fd5b1561155557565b60405162461bcd60e51b8152602060048201526011602482015270496e76616c6964206c6f6e67697475646560781b6044820152606490fd5b90600182811c921680156115be575b60208310146115a857565b634e487b7160e01b600052602260045260246000fd5b91607f169161159d565b908060209392818452848401376000828201840152601f01601f1916010190565b602281527f5265706c61792061747461636b3a2074696d657374616d70206e6f74206e657760208201526132b960f11b604082015260600190565b818103929160001380158285131691841216176102c457565b811561165857600160ff1b81146000198314166102c4570590565b634e487b7160e01b600052601260045260246000fd5b906201b1988202918083056201b19814901517156102c457565b9062014c0882029180830562014c0814901517156102c457565b919091600083820193841291129080158216911516176102c457565b919082039182116102c457565b602381527f54616d706572696e673a20696d706f737369626c6520616c746974756465206a6020820152620756d760ec1b604082015260600190565b602381527f54616d706572696e673a20696d706f737369626c6520616c746974756465207260208201526261746560e81b604082015260600190565b602281527f53706f6f66696e673a20696d706f737369626c6520706f736974696f6e206a7560208201526106d760f41b604082015260600190565b6001548110156114a857600160005260206000200190600090565b601f82116117a657505050565b6000526020600020906020601f840160051c830193106117e1575b601f0160051c01905b8181106117d5575050565b600081556001016117ca565b90915081906117c1565b3580151581036102e05790565b91909182516001600160401b0381116105a65761181981610e8f845461158e565b6020601f821160011461185957819061184a93949560009261184e5750508160011b916000199060031b1c19161790565b9055565b015190503880610eb1565b601f1982169083600052806000209160005b8181106118a35750958360019596971061188a575b505050811b019055565b015160001960f88460031b161c19169055388080611880565b9192602060018192868b01518155019401920161186b565b90604051918260008254926118cf8461158e565b808452936001811690811561193d57506001146118f6575b506118f49250038361131f565b565b90506000929192526020600020906000915b8183106119215750509060206118f492820101386118e7565b6020919350806001915483858901015201910190918492611908565b9050602092506118f494915060ff191682840152151560051b820101386118e7565b909193929361197f60206060938160405193828580945193849201611268565b8101600081520301902092611994845461158e565b6119cc575b5050505050506001906040516119b060408261131f565b600c81526b56616c69642075706461746560a01b602082015290565b60068401549283861115611b555750611a0c929161061a61061561060f61060a620f4240806106006105f4611a069960028e015490611624565b936116be565b9283611a1a575b8080611999565b6004611a2892015490611624565b61c350611a3482611c4c565b13611b0857611a4883610663600a93611c4c565b13611abc57620186a0129081611ab0575b50611a675738808080611a13565b600090604051611a7860608261131f565b602281527f53706f6f66696e673a20696d706f737369626c6520706f736974696f6e206a7560208201526106d760f41b604082015290565b61012c91501038611a59565b5050600090604051611acf60608261131f565b602381527f54616d706572696e673a20696d706f737369626c6520616c746974756465207260208201526261746560e81b604082015290565b505050600090604051611b1c60608261131f565b602381527f54616d706572696e673a20696d706f737369626c6520616c746974756465206a6020820152620756d760ec1b604082015290565b9695505050505050600091611b6d604051918261131f565b602281527f5265706c61792061747461636b3a2074696d657374616d70206e6f74206e657760208201526132b960f11b604082015290565b6001600160401b0381116105a65760051b60200190565b90611bc682611ba5565b611bd3604051918261131f565b8281528092611be4601f1991611ba5565b019060005b828110611bf557505050565b806060602080938501015201611be9565b90611c1082611ba5565b611c1d604051918261131f565b8281528092611c2e601f1991611ba5565b0190602036910137565b80518210156114a85760209160051b010190565b6000808212611c59575090565b600160ff1b8214611c68570390565b634e487b7160e01b81526011600452602490fdfebe2393eab49d82f15bd29fe8df27147c81eb51f2e741222bbde91d0c12e22245a26469706673582212209129e68483c4042084fd8c50841c01ebdb7891810d62698392e01bac689f81d864736f6c634300081c0033",
  "linkReferences": {},
  "deployedLinkReferences": {}
}