{
  "_format": "hh-sol-artifact-1",
  "contractName": "AdsbData",
  "sourceName": "contracts/AdsbData.sol",
  "abi": [
    {
      "inputs": [],
      "stateMutability": "nonpayable",
      "type": "constructor"
    },
    {
      "anonymous": false,
      "inputs": [
        {
          "indexed": false,
          "internalType": "uint256",
          "name": "count",
          "type": "uint256"
        },
        {
          "indexed": false,
          "internalType": "uint256",
          "name": "timestamp",
          "type": "uint256"
        }
      ],
      "name": "FlightBatchUpdated",
      "type": "event"
    },
    {
      "anonymous": false,
      "inputs": [
        {
          "indexed": false,
          "internalType": "string",
          "name": "icao24",
          "type": "string"
        },
        {
          "indexed": false,
          "internalType": "string",
          "name": "callsign",
          "type": "string"
        },
        {
          "indexed": false,
          "internalType": "int256",
          "name": "latitude",
          "type": "int256"
        },
        {
          "indexed": false,
          "internalType": "int256",
          "name": "longitude",
          "type": "int256"
        },
        {
          "indexed": false,
          "internalType": "int256",
          "name": "altitude",
          "type": "int256"
        },
        {
          "indexed": false,
          "internalType": "bool",
          "name": "onGround",
          "type": "bool"
        },
        {
          "indexed": false,
          "internalType": "uint256",
          "name": "timestamp",
          "type": "uint256"
        },
        {
          "indexed": false,
          "internalType": "bool",
          "name": "isSpoofed",
          "type": "bool"
        }
      ],
      "name": "FlightUpdated",
      "type": "event"
    },
    {
      "inputs": [
        {
          "internalType": "uint256",
          "name": "index",
          "type": "uint256"
        }
      ],
      "name": "getFlight",
      "outputs": [
        {
          "internalType": "string",
          "name": "",
          "type": "string"
        },
        {
          "internalType": "string",
          "name": "",
          "type": "string"
        },
        {
          "internalType": "int256",
          "name": "",
          "type": "int256"
        },
        {
          "internalType": "int256",
          "name": "",
          "type": "int256"
        },
        {
          "internalType": "int256",
          "name": "",
          "type": "int256"
        },
        {
          "internalType": "bool",
          "name": "",
          "type": "bool"
        },
        {
          "internalType": "uint256",
          "name": "",
          "type": "uint256"
        },
        {
          "internalType": "bool",
          "name": "",
          "type": "bool"
        }
      ],
      "stateMutability": "view",
      "type": "function"
    },
    {
      "inputs": [],
      "name": "getFlightCount",
      "outputs": [
        {
          "internalType": "uint256",
          "name": "",
          "type": "uint256"
        }
      ],
      "stateMutability": "view",
      "type": "function"
    },
    {
      "inputs": [
        {
          "internalType": "uint256",
          "name": "count",
          "type": "uint256"
        }
      ],
      "name": "getLatestFlights",
      "outputs": [
        {
          "internalType": "string[]",
          "name": "icao24s",
          "type": "string[]"
        },
        {
          "internalType": "string[]",
          "name": "callsigns",
          "type": "string[]"
        },
        {
          "internalType": "int256[]",
          "name": "latitudes",
          "type": "int256[]"
        },
        {
          "internalType": "int256[]",
          "name": "longitudes",
          "type": "int256[]"
        },
        {
          "internalType": "int256[]",
          "name": "altitudes",
          "type": "int256[]"
        },
        {
          "internalType": "bool[]",
          "name": "onGrounds",
          "type": "bool[]"
        },
        {
          "internalType": "uint256[]",
          "name": "timestamps",
          "type": "uint256[]"
        },
        {
          "internalType": "bool[]",
          "name": "isSpoofedFlags",
          "type": "bool[]"
        }
      ],
      "stateMutability": "view",
      "type": "function"
    },
    {
      "inputs": [
        {
          "internalType": "string",
          "name": "_icao24",
          "type": "string"
        },
        {
          "internalType": "string",
          "name": "_callsign",
          "type": "string"
        },
        {
          "internalType": "int256",
          "name": "_latitude",
          "type": "int256"
        },
        {
          "internalType": "int256",
          "name": "_longitude",
          "type": "int256"
        },
        {
          "internalType": "int256",
          "name": "_altitude",
          "type": "int256"
        },
        {
          "internalType": "bool",
          "name": "_onGround",
          "type": "bool"
        },
        {
          "internalType": "bool",
          "name": "_isSpoofed",
          "type": "bool"
        }
      ],
      "name": "updateFlight",
      "outputs": [],
      "stateMutability": "nonpayable",
      "type": "function"
    },
    {
      "inputs": [
        {
          "internalType": "string[]",
          "name": "_icao24s",
          "type": "string[]"
        },
        {
          "internalType": "string[]",
          "name": "_callsigns",
          "type": "string[]"
        },
        {
          "internalType": "int256[]",
          "name": "_latitudes",
          "type": "int256[]"
        },
        {
          "internalType": "int256[]",
          "name": "_longitudes",
          "type": "int256[]"
        },
        {
          "internalType": "int256[]",
          "name": "_altitudes",
          "type": "int256[]"
        },
        {
          "internalType": "bool[]",
          "name": "_onGrounds",
          "type": "bool[]"
        },
        {
          "internalType": "bool[]",
          "name": "_isSpoofedFlags",
          "type": "bool[]"
        }
      ],
      "name": "updateFlightBatch",
      "outputs": [],
      "stateMutability": "nonpayable",
      "type": "function"
    }
  ],
  "bytecode": "0x60808060405234601557611391908161001b8239f35b600080fdfe6102a080604052600436101561001457600080fd5b60003560e01c9081631a4ab7ae14610740575080633a4396cb146105bd578063515b3d281461059f578063a954a66b146102d95763fc6e60ab1461005757600080fd5b346102d45760203660031901126102d457600154600435818111156102cf5750805b610082816112cb565b9161008c826112cb565b61009583611315565b9361009f84611315565b6100a885611315565b956100b286611315565b926100bc876112b4565b946100ca6040519687610e2a565b8786526100d6886112b4565b602087019890601f1901368a376100ec81611315565b9760005b8281106101b9575050509761015461017094610146602097956101386101629661012b9d9e6040519e8f926101008452610100840190610eaf565b918c818403910152610eaf565b8c810360408e015290610f08565b908a820360608c0152610f08565b9088820360808a0152610f08565b9086820360a0880152610f3c565b9184830360c0860152519182815201939060005b8181106101a357848061019f888783820360e0850152610f3c565b0390f35b8251865260209586019590920191600101610184565b828203908282116102b9578082018092116102b95760ff60078e61020160206101ec6101e6600198611099565b50611210565b60008260405194838680955193849201610d73565b8201908152030190209061021482611210565b61021e868c611347565b52610229858b611347565b50610235868301611210565b61023f868b611347565b5261024a858a611347565b50600282015461025a868d611347565b52600382015461026a868e611347565b5261027a85600484015492611347565b526005810154831661028c858e611347565b901515905260068101546102a0858f611347565b520154166102ae828d611347565b9015159052016100f0565b634e487b7160e01b600052601160045260246000fd5b610079565b600080fd5b346102d45760e03660031901126102d4576004356001600160401b0381116102d457610309903690600401610e91565b6024356001600160401b0381116102d457610328903690600401610e91565b60a4358015159260443592916084356064358683036102d45760c43596871515908189036102d457859161035e83511515610fc9565b63055d4a7f1989121580610591575b6103769061101a565b630aba94ff1984121580610583575b61038e90611059565b6040519161039b83610e0e565b8383526020830190898252604084018b815260608501878152608086019189835260a0870193845260c087019442865260e08801968752604051808a819b519b60208d92019c6103eb918e610d73565b8101600081520360200190209751610403908961114d565b51610411906001890161114d565b5160028701555160038601555160048501555115156005840190610440919060ff801983541691151516179055565b5160068301555115159060070190610463919060ff801983541691151516179055565b604051808651610474818386610d73565b8101600281520360200190205460ff16156104c7575b50916104c293917fe91765dfbddfb21ee1221dc71fda0743d7f0081f080e2eb1f5a8b83891a01a499793604051978897429589610dbb565b0390a1005b9692909391600154600160401b81101561056d578060016104eb9201600155611099565b9590956105575761053760207fe91765dfbddfb21ee1221dc71fda0743d7f0081f080e2eb1f5a8b83891a01a499a610526876104c29a61114d565b604051809381928951928391610d73565b81016002815203019020600160ff1982541617905591939750919361048a565b634e487b7160e01b600052600060045260246000fd5b634e487b7160e01b600052604160045260246000fd5b50630aba9500841315610385565b5063055d4a8089131561036d565b346102d45760003660031901126102d4576020600154604051908152f35b346102d45760203660031901126102d4576004356001548110156106fb576105e490611099565b50604051908160008254926105f8846110b4565b93600181169081156106e157506001146106a5575b506020925060008152030190206040519061062782610e0e565b61063081611210565b825261019f61064160018301611210565b928360208201526002830154928360408301526003810154806060840152600482015480608085015260ff6005840154161515918260a086015260ff60076006860154958660c08901520154161515948560e0820152519660405198899889610dbb565b9150506000528160206000206000905b8382106106c957505060209181018461060d565b602091925080600191548487015201910183916106b5565b60ff1916845250602093801515028301915085905061060d565b60405162461bcd60e51b815260206004820152601a60248201527f466c6967687420696e646578206f7574206f6620626f756e64730000000000006044820152606490fd5b346102d45760e03660031901126102d4576004356001600160401b0381116102d457610770903690600401610d43565b61024052610180526024356001600160401b0381116102d457610797903690600401610d43565b61028052610260526044356001600160401b0381116102d4576107be903690600401610d43565b61014052610160526064356001600160401b0381116102d4576107e5903690600401610d43565b6101a05260c0526084356001600160401b0381116102d45761080b903690600401610d43565b6101e05260e05260a4356001600160401b0381116102d457610831903690600401610d43565b610200526101005260c4356001600160401b0381116102d457610858903690600401610d43565b610220526101205261028051610240511480610d34575b80610d25575b80610d16575b80610d07575b80610cf8575b15610cb65760006101c0525b610240516101c051106108d4577fe1801d1c0f546376b112a5226098f5b179496165669303c7a4f8698b4473662760408051610240518152426020820152a1005b6108f46108eb6101c0516102405161018051610f72565b90501515610fc9565b63055d4a7f1961090e6101c051610140516101605161100a565b35121580610c8f575b6109209061101a565b630aba94ff196109396101c0516101a05160c05161100a565b35121580610c69575b61094b90611059565b60ff60206109636101c0516102405161018051610f72565b919082604051938492833781016002815203019020541615610b1c575b610b0c610a3c600761099c6101c0516102405161018051610f72565b90610af06109b46101c0516102805161026051610f72565b6109cb6101c094929451610140516101605161100a565b3593610a4c6109e36101c0516101a05160c05161100a565b35916109f86101c0516101e05160e05161100a565b3593610a43610a19610a146101c051610200516101005161100a565b611140565b96610a31610a146101c051610220516101205161100a565b9a6040519d8e610e0e565b3691610e4b565b8b523691610e4b565b946020890195865260408901908152606089019182526080890192835260a089019315158452610ac660c08a019642885260e08b019815158952610abc6020610a9f6101c0516102405161018051610f72565b9190826040519384928337810160008152030190209b518c61114d565b5160018b0161114d565b516002890155516003880155516004870155511515600586019060ff801983541691151516179055565b51600684015551151591019060ff801983541691151516179055565b60016101c051016101c052610893565b610b306101c0516102405161018051610f72565b600154600160401b81101561056d57806001610b4f9201600155611099565b919091610557576001600160401b03811161056d57610b7881610b7284546110b4565b846110ee565b6000601f8211600114610bf2578190610ba99394600092610be7575b50508160011b916000199060031b1c19161790565b90555b6020610bc26101c0516102405161018051610f72565b919082604051938492833781016002815203019020600160ff19825416179055610980565b013590508480610b94565b8281526020812060a052806080525b601f19821660805110610c4657926001929382601f19811610610c2b575b5050811b019055610bac565b60001960f88460031b161c199101351660a051558380610c1f565b8060209185013560a05155600160a0510160a05201602060805101608052610c01565b5061094b630aba9500610c856101c0516101a05160c05161100a565b3513159050610942565b5061092063055d4a80610cac6101c051610140516101605161100a565b3513159050610917565b62461bcd60e51b815260206004820152601860248201527f4172726179206c656e67746873206d757374206d6174636800000000000000006044820152606490fd5b50610220516102405114610887565b50610200516102405114610881565b506101e051610240511461087b565b506101a0516102405114610875565b5061014051610240511461086f565b9181601f840112156102d4578235916001600160401b0383116102d4576020808501948460051b0101116102d457565b60005b838110610d865750506000910152565b8181015183820152602001610d76565b90602091610daf81518092818552858086019101610d73565b601f01601f1916010190565b96939060e0969399989592610ddd610deb926101008b526101008b0190610d96565b9089820360208b0152610d96565b98604088015260608701526080860152151560a085015260c08401521515910152565b61010081019081106001600160401b0382111761056d57604052565b90601f801991011681019081106001600160401b0382111761056d57604052565b9291926001600160401b03821161056d5760405191610e74601f8201601f191660200184610e2a565b8294818452818301116102d4578281602093846000960137010152565b9080601f830112156102d457816020610eac93359101610e4b565b90565b9080602083519182815201916020808360051b8301019401926000915b838310610edb57505050505090565b9091929394602080610ef9600193601f198682030187528951610d96565b97019301930191939290610ecc565b906020808351928381520192019060005b818110610f265750505090565b8251845260209384019390920191600101610f19565b906020808351928381520192019060005b818110610f5a5750505090565b82511515845260209384019390920191600101610f4d565b9190811015610fb35760051b81013590601e19813603018212156102d45701908135916001600160401b0383116102d45760200182360381136102d4579190565b634e487b7160e01b600052603260045260246000fd5b15610fd057565b60405162461bcd60e51b81526020600482015260126024820152711250d053cc8d081a5cc81c995c5d5a5c995960721b6044820152606490fd5b9190811015610fb35760051b0190565b1561102157565b60405162461bcd60e51b815260206004820152601060248201526f496e76616c6964206c6174697475646560801b6044820152606490fd5b1561106057565b60405162461bcd60e51b8152602060048201526011602482015270496e76616c6964206c6f6e67697475646560781b6044820152606490fd5b600154811015610fb357600160005260206000200190600090565b90600182811c921680156110e4575b60208310146110ce57565b634e487b7160e01b600052602260045260246000fd5b91607f16916110c3565b601f82116110fb57505050565b6000526020600020906020601f840160051c83019310611136575b601f0160051c01905b81811061112a575050565b6000815560010161111f565b9091508190611116565b3580151581036102d45790565b91909182516001600160401b03811161056d5761116e81610b7284546110b4565b6020601f82116001146111ae57819061119f9394956000926111a35750508160011b916000199060031b1c19161790565b9055565b015190503880610b94565b601f1982169083600052806000209160005b8181106111f8575095836001959697106111df575b505050811b019055565b015160001960f88460031b161c191690553880806111d5565b9192602060018192868b0151815501940192016111c0565b9060405191826000825492611224846110b4565b8084529360018116908115611292575060011461124b575b5061124992500383610e2a565b565b90506000929192526020600020906000915b818310611276575050906020611249928201013861123c565b602091935080600191548385890101520191019091849261125d565b90506020925061124994915060ff191682840152151560051b8201013861123c565b6001600160401b03811161056d5760051b60200190565b906112d5826112b4565b6112e26040519182610e2a565b82815280926112f3601f19916112b4565b019060005b82811061130457505050565b8060606020809385010152016112f8565b9061131f826112b4565b61132c6040519182610e2a565b828152809261133d601f19916112b4565b0190602036910137565b8051821015610fb35760209160051b01019056fea2646970667358221220a9b4333d3d9474c7299794ce69d72fba1cbc1c10ed91a8af1e320674168554c464736f6c634300081c0033",
  "linkReferences": {},
  "deployedLinkReferences": {}
}