{
  "_format": "hh-sol-artifact-1",
  "contractName": "AdsbData",
  "sourceName": "contracts/AdsbData.sol",
  "abi": [
    {
      "inputs": [],
      "stateMutability": "nonpayable",
      "type": "constructor"
    },
    {
      "anonymous": false,
      "inputs": [
        {
          "indexed": false,
          "internalType": "uint256",
          "name": "count",
          "type": "uint256"
        },
        {
          "indexed": false,
          "internalType": "uint256",
          "name": "timestamp",
          "type": "uint256"
        }
      ],
      "name": "FlightBatchUpdated",
      "type": "event"
    },
    {
      "anonymous": false,
      "inputs": [
        {
          "indexed": false,
          "internalType": "string",
          "name": "icao24",
          "type": "string"
        },
        {
          "indexed": false,
          "internalType": "string",
          "name": "reason",
          "type": "string"
        }
      ],
      "name": "FlightRejected",
      "type": "event"
    },
    {
      "anonymous": false,
      "inputs": [
        {
          "indexed": false,
          "internalType": "string",
          "name": "icao24",
          "type": "string"
        },
        {
          "indexed": false,
          "internalType": "string",
          "name": "callsign",
          "type": "string"
        },
        {
          "indexed": false,
          "internalType": "int256",
          "name": "latitude",
          "type": "int256"
        },
        {
          "indexed": false,
          "internalType": "int256",
          "name": "longitude",
          "type": "int256"
        },
        {
          "indexed": false,
          "internalType": "int256",
          "name": "altitude",
          "type": "int256"
        },
        {
          "indexed": false,
          "internalType": "bool",
          "name": "onGround",
          "type": "bool"
        },
        {
          "indexed": false,
          "internalType": "uint256",
          "name": "timestamp",
          "type": "uint256"
        },
        {
          "indexed": false,
          "internalType": "bool",
          "name": "isSpoofed",
          "type": "bool"
        }
      ],
      "name": "FlightUpdated",
      "type": "event"
    },
    {
      "inputs": [
        {
          "internalType": "uint256",
          "name": "index",
          "type": "uint256"
        }
      ],
      "name": "getFlight",
      "outputs": [
        {
          "internalType": "string",
          "name": "",
          "type": "string"
        },
        {
          "internalType": "string",
          "name": "",
          "type": "string"
        },
        {
          "internalType": "int256",
          "name": "",
          "type": "int256"
        },
        {
          "internalType": "int256",
          "name": "",
          "type": "int256"
        },
        {
          "internalType": "int256",
          "name": "",
          "type": "int256"
        },
        {
          "internalType": "bool",
          "name": "",
          "type": "bool"
        },
        {
          "internalType": "uint256",
          "name": "",
          "type": "uint256"
        },
        {
          "internalType": "bool",
          "name": "",
          "type": "bool"
        }
      ],
      "stateMutability": "view",
      "type": "function"
    },
    {
      "inputs": [],
      "name": "getFlightCount",
      "outputs": [
        {
          "internalType": "uint256",
          "name": "",
          "type": "uint256"
        }
      ],
      "stateMutability": "view",
      "type": "function"
    },
    {
      "inputs": [
        {
          "internalType": "uint256",
          "name": "count",
          "type": "uint256"
        }
      ],
      "name": "getLatestFlights",
      "outputs": [
        {
          "internalType": "string[]",
          "name": "icao24s",
          "type": "string[]"
        },
        {
          "internalType": "string[]",
          "name": "callsigns",
          "type": "string[]"
        },
        {
          "internalType": "int256[]",
          "name": "latitudes",
          "type": "int256[]"
        },
        {
          "internalType": "int256[]",
          "name": "longitudes",
          "type": "int256[]"
        },
        {
          "internalType": "int256[]",
          "name": "altitudes",
          "type": "int256[]"
        },
        {
          "internalType": "bool[]",
          "name": "onGrounds",
          "type": "bool[]"
        },
        {
          "internalType": "uint256[]",
          "name": "timestamps",
          "type": "uint256[]"
        },
        {
          "internalType": "bool[]",
          "name": "isSpoofedFlags",
          "type": "bool[]"
        }
      ],
      "stateMutability": "view",
      "type": "function"
    },
    {
      "inputs": [
        {
          "internalType": "string",
          "name": "_icao24",
          "type": "string"
        },
        {
          "internalType": "string",
          "name": "_callsign",
          "type": "string"
        },
        {
          "internalType": "int256",
          "name": "_latitude",
          "type": "int256"
        },
        {
          "internalType": "int256",
          "name": "_longitude",
          "type": "int256"
        },
        {
          "internalType": "int256",
          "name": "_altitude",
          "type": "int256"
        },
        {
          "internalType": "bool",
          "name": "_onGround",
          "type": "bool"
        },
        {
          "internalType": "bool",
          "name": "_isSpoofed",
          "type": "bool"
        }
      ],
      "name": "updateFlight",
      "outputs": [],
      "stateMutability": "nonpayable",
      "type": "function"
    },
    {
      "inputs": [
        {
          "internalType": "string[]",
          "name": "_icao24s",
          "type": "string[]"
        },
        {
          "internalType": "string[]",
          "name": "_callsigns",
          "type": "string[]"
        },
        {
          "internalType": "int256[]",
          "name": "_latitudes",
          "type": "int256[]"
        },
        {
          "internalType": "int256[]",
          "name": "_longitudes",
          "type": "int256[]"
        },
        {
          "internalType": "int256[]",
          "name": "_altitudes",
          "type": "int256[]"
        },
        {
          "internalType": "bool[]",
          "name": "_onGrounds",
          "type": "bool[]"
        },
        {
          "internalType": "bool[]",
          "name": "_isSpoofedFlags",
          "type": "bool[]"
        }
      ],
      "name": "updateFlightBatch",
      "outputs": [],
      "stateMutability": "nonpayable",
      "type": "function"
    },
    {
      "inputs": [
        {
          "internalType": "string",
          "name": "_icao24",
          "type": "string"
        },
        {
          "internalType": "int256",
          "name": "_latitude",
          "type": "int256"
        },
        {
          "internalType": "int256",
          "name": "_longitude",
          "type": "int256"
        },
        {
          "internalType": "int256",
          "name": "_altitude",
          "type": "int256"
        },
        {
          "internalType": "uint256",
          "name": "_timestamp",
          "type": "uint256"
        }
      ],
      "name": "validateFlightUpdate",
      "outputs": [
        {
          "internalType": "bool",
          "name": "valid",
          "type": "bool"
        },
        {
          "internalType": "string",
          "name": "reason",
          "type": "string"
        }
      ],
      "stateMutability": "view",
      "type": "function"
    }
  ],
  "bytecode": "0x60808060405234601557611b71908161001b8239f35b600080fdfe6102a080604052600436101561001457600080fd5b60003560e01c9081631a4ab7ae146109bf575080633a4396cb1461083c578063515b3d281461081e57806363b3b6a3146107b7578063a954a66b146102e55763fc6e60ab1461006257600080fd5b346102e05760203660031901126102e057600154600435818111156102da5750805b61008d82611a5b565b9161009781611a5b565b6100a082611aa5565b936100aa83611aa5565b6100b384611aa5565b956100bd85611aa5565b926100c786611a44565b946100d56040519687611276565b8686526100e187611a44565b602087019890601f1901368a376100f788611aa5565b9760005b8181106101c4575050509761015f61017b946101516020979561014361016d966101369d9e6040519e8f9261010084526101008401906112fb565b918c8184039101526112fb565b8c810360408e015290611354565b908a820360608c0152611354565b9088820360808a0152611354565b9086820360a0880152611388565b9184830360c0860152519182815201939060005b8181106101ae5784806101aa888783820360e0850152611388565b0390f35b825186526020958601959092019160010161018f565b6101ce82846115e4565b908082018092116102c45760ff60078e61020c60206101f76101f1600198611668565b506117a5565b600082604051948386809551938492016111bf565b8201908152030190209061021f826117a5565b610229868c611ad7565b52610234858b611ad7565b506102408683016117a5565b61024a868b611ad7565b52610255858a611ad7565b506002820154610265868d611ad7565b526003820154610275868e611ad7565b5261028585600484015492611ad7565b5260058101548316610297858e611ad7565b901515905260068101546102ab858f611ad7565b520154166102b9828d611ad7565b9015159052016100fb565b634e487b7160e01b600052601160045260246000fd5b90610084565b600080fd5b346102e05760e03660031901126102e0576004356001600160401b0381116102e0576103159036906004016112dd565b6024356001600160401b0381116102e0576103349036906004016112dd565b60a4358015159260443592916084356064358683036102e05760c43596871515908189036102e05761036886511515611415565b63055d4a7f19881215806107a9575b61038090611466565b630aba94ff198312158061079b575b610398906114a5565b60405191865192602081818a01956103b18183896111bf565b810160008152030190206103c581546114e5565b6105bc575b50604051916103d88361125a565b8783526020830190898252604084018b815260608501878152608086019189835260a0870193845260c087019442865260e08801968752888d60405180928192518092610424926111bf565b810160008152036020019020975161043c90896116e2565b5161044a90600189016116e2565b5160028701555160038601555160048501555115156005840190610479919060ff801983541691151516179055565b516006830155511515906007019061049c919060ff801983541691151516179055565b6040518086516104ad8183866111bf565b8101600281520360200190205460ff1615610500575b50916104fb93917fe91765dfbddfb21ee1221dc71fda0743d7f0081f080e2eb1f5a8b83891a01a499793604051978897429589611207565b0390a1005b9692909391600154600160401b8110156105a6578060016105249201600155611668565b9590956105905761057060207fe91765dfbddfb21ee1221dc71fda0743d7f0081f080e2eb1f5a8b83891a01a499a61055f876104fb9a6116e2565b6040518093819289519283916111bf565b81016002815203019020600160ff198254161790559193975091936104c3565b634e487b7160e01b600052600060045260246000fd5b634e487b7160e01b600052604160045260246000fd5b60068101549081421115610741576106286106218761061b6106168f61060b620f4240806106016105f56106109560028d01549061157b565b9760038c01549061157b565b9605950594611aeb565b611594565b92611aeb565b6115ae565b906115c8565b92426115e4565b9182610636575b50506103ca565b6207a1201280610737575b6106dd5761065f61065a6004620f42409301548961157b565b611aeb565b1390816106d2575b50610674578a808061062f565b600080516020611b1c83398151915261069e886106ab6040519283926040845260408401906111e2565b828103602084015261162c565b0390a160405162461bcd60e51b815260206004820152806106ce6024820161162c565b0390fd5b603c9150108b610667565b600080516020611b1c8339815191526107078a6107146040519283926040845260408401906111e2565b82810360208401526115f1565b0390a160405162461bcd60e51b815260206004820152806106ce602482016115f1565b50603c8210610641565b600080516020611b1c83398151915261076b8a6107786040519283926040845260408401906111e2565b8281036020840152611540565b0390a160405162461bcd60e51b815260206004820152806106ce60248201611540565b50630aba950083131561038f565b5063055d4a80881315610377565b346102e05760a03660031901126102e0576004356001600160401b0381116102e0576107ea6107ff9136906004016112dd565b60843590606435906044359060243590611849565b906101aa604051928392151583526040602084015260408301906111e2565b346102e05760003660031901126102e0576020600154604051908152f35b346102e05760203660031901126102e05760043560015481101561097a5761086390611668565b5060405190816000825492610877846114e5565b93600181169081156109605750600114610924575b50602092506000815203019020604051906108a68261125a565b6108af816117a5565b82526101aa6108c0600183016117a5565b928360208201526002830154928360408301526003810154806060840152600482015480608085015260ff6005840154161515918260a086015260ff60076006860154958660c08901520154161515948560e0820152519660405198899889611207565b9150506000528160206000206000905b83821061094857505060209181018461088c565b60209192508060019154848701520191018391610934565b60ff1916845250602093801515028301915085905061088c565b60405162461bcd60e51b815260206004820152601a60248201527f466c6967687420696e646578206f7574206f6620626f756e64730000000000006044820152606490fd5b346102e05760e03660031901126102e0576004356001600160401b0381116102e0576109ef90369060040161118f565b61024052610180526024356001600160401b0381116102e057610a1690369060040161118f565b61028052610260526044356001600160401b0381116102e057610a3d90369060040161118f565b61014052610160526064356001600160401b0381116102e057610a6490369060040161118f565b6101a05260c0526084356001600160401b0381116102e057610a8a90369060040161118f565b6101e05260e05260a4356001600160401b0381116102e057610ab090369060040161118f565b610200526101005260c4356001600160401b0381116102e057610ad790369060040161118f565b610220526101205261028051610240511480611180575b80611171575b80611162575b80611153575b80611144575b156111025760006101c0525b610240516101c05110610b53577fe1801d1c0f546376b112a5226098f5b179496165669303c7a4f8698b4473662760408051610240518152426020820152a1005b610b73610b6a6101c05161024051610180516113be565b90501515611415565b63055d4a7f19610b8d6101c0516101405161016051611456565b351215806110db575b610b9f90611466565b630aba94ff19610bb86101c0516101a05160c051611456565b351215806110b5575b610bca906114a5565b6020610be06101c05161024051610180516113be565b919082604051938492833781016000815203019020610bff81546114e5565b610f23575b5060ff6020610c1d6101c05161024051610180516113be565b919082604051938492833781016002815203019020541615610dd6575b610dc6610cf66007610c566101c05161024051610180516113be565b90610daa610c6e6101c05161028051610260516113be565b610c856101c0949294516101405161016051611456565b3593610d06610c9d6101c0516101a05160c051611456565b3591610cb26101c0516101e05160e051611456565b3593610cfd610cd3610cce6101c0516102005161010051611456565b6116d5565b96610ceb610cce6101c0516102205161012051611456565b9a6040519d8e61125a565b3691611297565b8b523691611297565b946020890195865260408901908152606089019182526080890192835260a089019315158452610d8060c08a019642885260e08b019815158952610d766020610d596101c05161024051610180516113be565b9190826040519384928337810160008152030190209b518c6116e2565b5160018b016116e2565b516002890155516003880155516004870155511515600586019060ff801983541691151516179055565b51600684015551151591019060ff801983541691151516179055565b60016101c051016101c052610b12565b610dea6101c05161024051610180516113be565b600154600160401b8110156105a657806001610e099201600155611668565b919091610590576001600160401b0381116105a657610e3281610e2c84546114e5565b84611683565b6000601f8211600114610eac578190610e639394600092610ea1575b50508160011b916000199060031b1c19161790565b90555b6020610e7c6101c05161024051610180516113be565b919082604051938492833781016002815203019020600160ff19825416179055610c3a565b013590508480610e4e565b8281526020812060a052806080525b601f19821660805110610f0057926001929382601f19811610610ee5575b5050811b019055610e66565b60001960f88460031b161c199101351660a051558380610ed9565b8060209185013560a05155600160a0510160a05201602060805101608052610ebb565b6006810154908142111561107857610f8d610621610f5a610f4e6101c0516101405161016051611456565b3560028501549061157b565b61061b61061661061061060b620f424080610601610f816101c0516101a05160c051611456565b3560038c01549061157b565b9182610f9b575b5050610c04565b6207a120128061106e575b61103157610fd461065a620f4240926004610fca6101c0516101e05160e051611456565b359101549061157b565b139081611026575b50610fe957808080610f94565b600080516020611b1c83398151915261100c6101c05161024051610180516113be565b6106ab61069e60405193849360408552604085019161151f565b603c91501081610fdc565b600080516020611b1c8339815191526110546101c05161024051610180516113be565b61071461070760405193849360408552604085019161151f565b50603c8210610fa6565b600080516020611b1c83398151915261109b6101c05161024051610180516113be565b61077861076b60405193849360408552604085019161151f565b50610bca630aba95006110d16101c0516101a05160c051611456565b3513159050610bc1565b50610b9f63055d4a806110f86101c0516101405161016051611456565b3513159050610b96565b62461bcd60e51b815260206004820152601860248201527f4172726179206c656e67746873206d757374206d6174636800000000000000006044820152606490fd5b50610220516102405114610b06565b50610200516102405114610b00565b506101e0516102405114610afa565b506101a0516102405114610af4565b50610140516102405114610aee565b9181601f840112156102e0578235916001600160401b0383116102e0576020808501948460051b0101116102e057565b60005b8381106111d25750506000910152565b81810151838201526020016111c2565b906020916111fb815180928185528580860191016111bf565b601f01601f1916010190565b96939060e0969399989592611229611237926101008b526101008b01906111e2565b9089820360208b01526111e2565b98604088015260608701526080860152151560a085015260c08401521515910152565b61010081019081106001600160401b038211176105a657604052565b90601f801991011681019081106001600160401b038211176105a657604052565b9291926001600160401b0382116105a657604051916112c0601f8201601f191660200184611276565b8294818452818301116102e0578281602093846000960137010152565b9080601f830112156102e0578160206112f893359101611297565b90565b9080602083519182815201916020808360051b8301019401926000915b83831061132757505050505090565b9091929394602080611345600193601f1986820301875289516111e2565b97019301930191939290611318565b906020808351928381520192019060005b8181106113725750505090565b8251845260209384019390920191600101611365565b906020808351928381520192019060005b8181106113a65750505090565b82511515845260209384019390920191600101611399565b91908110156113ff5760051b81013590601e19813603018212156102e05701908135916001600160401b0383116102e05760200182360381136102e0579190565b634e487b7160e01b600052603260045260246000fd5b1561141c57565b60405162461bcd60e51b81526020600482015260126024820152711250d053cc8d081a5cc81c995c5d5a5c995960721b6044820152606490fd5b91908110156113ff5760051b0190565b1561146d57565b60405162461bcd60e51b815260206004820152601060248201526f496e76616c6964206c6174697475646560801b6044820152606490fd5b156114ac57565b60405162461bcd60e51b8152602060048201526011602482015270496e76616c6964206c6f6e67697475646560781b6044820152606490fd5b90600182811c92168015611515575b60208310146114ff57565b634e487b7160e01b600052602260045260246000fd5b91607f16916114f4565b908060209392818452848401376000828201840152601f01601f1916010190565b602281527f5265706c61792061747461636b3a2074696d657374616d70206e6f74206e657760208201526132b960f11b604082015260600190565b818103929160001380158285131691841216176102c457565b906201b1988202918083056201b19814901517156102c457565b9062014c0882029180830562014c0814901517156102c457565b919091600083820193841291129080158216911516176102c457565b919082039182116102c457565b602281527f53706f6f66696e673a20696d706f737369626c6520706f736974696f6e206a7560208201526106d760f41b604082015260600190565b602381527f54616d706572696e673a20696d706f737369626c6520616c746974756465206a6020820152620756d760ec1b604082015260600190565b6001548110156113ff57600160005260206000200190600090565b601f821161169057505050565b6000526020600020906020601f840160051c830193106116cb575b601f0160051c01905b8181106116bf575050565b600081556001016116b4565b90915081906116ab565b3580151581036102e05790565b91909182516001600160401b0381116105a65761170381610e2c84546114e5565b6020601f82116001146117435781906117349394956000926117385750508160011b916000199060031b1c19161790565b9055565b015190503880610e4e565b601f1982169083600052806000209160005b81811061178d57509583600195969710611774575b505050811b019055565b015160001960f88460031b161c1916905538808061176a565b9192602060018192868b015181550194019201611755565b90604051918260008254926117b9846114e5565b808452936001811690811561182757506001146117e0575b506117de92500383611276565b565b90506000929192526020600020906000915b81831061180b5750509060206117de92820101386117d1565b60209193508060019154838589010152019101909184926117f2565b9050602092506117de94915060ff191682840152151560051b820101386117d1565b909291611867602060609381604051938285809451938492016111bf565b810160008152030190209361187c85546114e5565b6118b4575b505050505050600190604051611898604082611276565b600c81526b56616c69642075706461746560a01b602082015290565b600685015492838711156119f457508461061b61061661061061060b620f4240806106016119009a9960036118f16118fa9b60028c01549061157b565b9901549061157b565b946115e4565b928361190e575b8080611881565b6207a12012806119ea575b61199e5761065a611933916004620f42409401549061157b565b139081611993575b506119495738808080611907565b60009060405161195a606082611276565b602381527f54616d706572696e673a20696d706f737369626c6520616c746974756465206a6020820152620756d760ec1b604082015290565b603c9150103861193b565b5050506000906040516119b2606082611276565b602281527f53706f6f66696e673a20696d706f737369626c6520706f736974696f6e206a7560208201526106d760f41b604082015290565b50603c8310611919565b9695505050505050600091611a0c6040519182611276565b602281527f5265706c61792061747461636b3a2074696d657374616d70206e6f74206e657760208201526132b960f11b604082015290565b6001600160401b0381116105a65760051b60200190565b90611a6582611a44565b611a726040519182611276565b8281528092611a83601f1991611a44565b019060005b828110611a9457505050565b806060602080938501015201611a88565b90611aaf82611a44565b611abc6040519182611276565b8281528092611acd601f1991611a44565b0190602036910137565b80518210156113ff5760209160051b010190565b6000808212611af8575090565b600160ff1b8214611b07570390565b634e487b7160e01b81526011600452602490fdfebe2393eab49d82f15bd29fe8df27147c81eb51f2e741222bbde91d0c12e22245a264697066735822122091843bc8d2da69b45c39b26dc1f31e9c99d87e31eafedf554125c9e49572536b64736f6c634300081c0033",
  "linkReferences": {},
  "deployedLinkReferences": {}
}